{
  "_format": "hh-sol-artifact-1",
  "contractName": "RetroMachine",
  "sourceName": "contracts/RetroMachine.sol",
  "abi": [
    {
      "inputs": [],
      "stateMutability": "nonpayable",
      "type": "constructor"
    },
    {
      "anonymous": false,
      "inputs": [
        {
          "indexed": true,
          "internalType": "address",
          "name": "owner",
          "type": "address"
        },
        {
          "indexed": true,
          "internalType": "address",
          "name": "approved",
          "type": "address"
        },
        {
          "indexed": true,
          "internalType": "uint256",
          "name": "tokenId",
          "type": "uint256"
        }
      ],
      "name": "Approval",
      "type": "event"
    },
    {
      "anonymous": false,
      "inputs": [
        {
          "indexed": true,
          "internalType": "address",
          "name": "owner",
          "type": "address"
        },
        {
          "indexed": true,
          "internalType": "address",
          "name": "operator",
          "type": "address"
        },
        {
          "indexed": false,
          "internalType": "bool",
          "name": "approved",
          "type": "bool"
        }
      ],
      "name": "ApprovalForAll",
      "type": "event"
    },
    {
      "anonymous": false,
      "inputs": [
        {
          "indexed": true,
          "internalType": "address",
          "name": "from",
          "type": "address"
        },
        {
          "indexed": true,
          "internalType": "address",
          "name": "to",
          "type": "address"
        },
        {
          "indexed": true,
          "internalType": "uint256",
          "name": "tokenId",
          "type": "uint256"
        }
      ],
      "name": "Transfer",
      "type": "event"
    },
    {
      "inputs": [
        {
          "internalType": "address",
          "name": "to",
          "type": "address"
        },
        {
          "internalType": "uint256",
          "name": "tokenId",
          "type": "uint256"
        }
      ],
      "name": "approve",
      "outputs": [],
      "stateMutability": "nonpayable",
      "type": "function"
    },
    {
      "inputs": [
        {
          "internalType": "address",
          "name": "owner",
          "type": "address"
        }
      ],
      "name": "balanceOf",
      "outputs": [
        {
          "internalType": "uint256",
          "name": "",
          "type": "uint256"
        }
      ],
      "stateMutability": "view",
      "type": "function"
    },
    {
      "inputs": [
        {
          "internalType": "uint256",
          "name": "tokenId",
          "type": "uint256"
        }
      ],
      "name": "getApproved",
      "outputs": [
        {
          "internalType": "address",
          "name": "",
          "type": "address"
        }
      ],
      "stateMutability": "view",
      "type": "function"
    },
    {
      "inputs": [
        {
          "internalType": "address",
          "name": "owner",
          "type": "address"
        },
        {
          "internalType": "address",
          "name": "operator",
          "type": "address"
        }
      ],
      "name": "isApprovedForAll",
      "outputs": [
        {
          "internalType": "bool",
          "name": "",
          "type": "bool"
        }
      ],
      "stateMutability": "view",
      "type": "function"
    },
    {
      "inputs": [
        {
          "internalType": "address",
          "name": "recipient",
          "type": "address"
        },
        {
          "internalType": "string",
          "name": "machineName",
          "type": "string"
        },
        {
          "internalType": "string",
          "name": "imagePermalink",
          "type": "string"
        }
      ],
      "name": "mint",
      "outputs": [
        {
          "internalType": "uint256",
          "name": "",
          "type": "uint256"
        }
      ],
      "stateMutability": "nonpayable",
      "type": "function"
    },
    {
      "inputs": [],
      "name": "name",
      "outputs": [
        {
          "internalType": "string",
          "name": "",
          "type": "string"
        }
      ],
      "stateMutability": "view",
      "type": "function"
    },
    {
      "inputs": [
        {
          "internalType": "uint256",
          "name": "tokenId",
          "type": "uint256"
        }
      ],
      "name": "ownerOf",
      "outputs": [
        {
          "internalType": "address",
          "name": "",
          "type": "address"
        }
      ],
      "stateMutability": "view",
      "type": "function"
    },
    {
      "inputs": [
        {
          "internalType": "address",
          "name": "from",
          "type": "address"
        },
        {
          "internalType": "address",
          "name": "to",
          "type": "address"
        },
        {
          "internalType": "uint256",
          "name": "tokenId",
          "type": "uint256"
        }
      ],
      "name": "safeTransferFrom",
      "outputs": [],
      "stateMutability": "nonpayable",
      "type": "function"
    },
    {
      "inputs": [
        {
          "internalType": "address",
          "name": "from",
          "type": "address"
        },
        {
          "internalType": "address",
          "name": "to",
          "type": "address"
        },
        {
          "internalType": "uint256",
          "name": "tokenId",
          "type": "uint256"
        },
        {
          "internalType": "bytes",
          "name": "_data",
          "type": "bytes"
        }
      ],
      "name": "safeTransferFrom",
      "outputs": [],
      "stateMutability": "nonpayable",
      "type": "function"
    },
    {
      "inputs": [
        {
          "internalType": "address",
          "name": "operator",
          "type": "address"
        },
        {
          "internalType": "bool",
          "name": "approved",
          "type": "bool"
        }
      ],
      "name": "setApprovalForAll",
      "outputs": [],
      "stateMutability": "nonpayable",
      "type": "function"
    },
    {
      "inputs": [
        {
          "internalType": "bytes4",
          "name": "interfaceId",
          "type": "bytes4"
        }
      ],
      "name": "supportsInterface",
      "outputs": [
        {
          "internalType": "bool",
          "name": "",
          "type": "bool"
        }
      ],
      "stateMutability": "view",
      "type": "function"
    },
    {
      "inputs": [],
      "name": "symbol",
      "outputs": [
        {
          "internalType": "string",
          "name": "",
          "type": "string"
        }
      ],
      "stateMutability": "view",
      "type": "function"
    },
    {
      "inputs": [
        {
          "internalType": "uint256",
          "name": "tokenId",
          "type": "uint256"
        }
      ],
      "name": "tokenURI",
      "outputs": [
        {
          "internalType": "string",
          "name": "",
          "type": "string"
        }
      ],
      "stateMutability": "view",
      "type": "function"
    },
    {
      "inputs": [
        {
          "internalType": "address",
          "name": "from",
          "type": "address"
        },
        {
          "internalType": "address",
          "name": "to",
          "type": "address"
        },
        {
          "internalType": "uint256",
          "name": "tokenId",
          "type": "uint256"
        }
      ],
      "name": "transferFrom",
      "outputs": [],
      "stateMutability": "nonpayable",
      "type": "function"
    }
  ],
  "bytecode": "0x60806040523480156200001157600080fd5b506040518060400160405280601381526020017f526574726f204d616368696e6520546f6b656e000000000000000000000000008152506040518060400160405280600381526020017f524d540000000000000000000000000000000000000000000000000000000000815250816000908051906020019062000096929190620000b8565b508060019080519060200190620000af929190620000b8565b505050620001cd565b828054620000c69062000168565b90600052602060002090601f016020900481019282620000ea576000855562000136565b82601f106200010557805160ff191683800117855562000136565b8280016001018555821562000136579182015b828111156200013557825182559160200191906001019062000118565b5b50905062000145919062000149565b5090565b5b80821115620001645760008160009055506001016200014a565b5090565b600060028204905060018216806200018157607f821691505b602082108114156200019857620001976200019e565b5b50919050565b7f4e487b7100000000000000000000000000000000000000000000000000000000600052602260045260246000fd5b61314980620001dd6000396000f3fe608060405234801561001057600080fd5b50600436106100ea5760003560e01c806370a082311161008c578063a22cb46511610066578063a22cb4651461026f578063b88d4fde1461028b578063c87b56dd146102a7578063e985e9c5146102d7576100ea565b806370a08231146101f157806395d89b4114610221578063990711901461023f576100ea565b8063095ea7b3116100c8578063095ea7b31461016d57806323b872dd1461018957806342842e0e146101a55780636352211e146101c1576100ea565b806301ffc9a7146100ef57806306fdde031461011f578063081812fc1461013d575b600080fd5b61010960048036038101906101049190611e8f565b610307565b6040516101169190612443565b60405180910390f35b6101276103e9565b604051610134919061245e565b60405180910390f35b61015760048036038101906101529190611ee1565b61047b565b60405161016491906123dc565b60405180910390f35b61018760048036038101906101829190611e53565b610500565b005b6101a3600480360381019061019e9190611cce565b610618565b005b6101bf60048036038101906101ba9190611cce565b610678565b005b6101db60048036038101906101d69190611ee1565b610698565b6040516101e891906123dc565b60405180910390f35b61020b60048036038101906102069190611c69565b61074a565b6040516102189190612680565b60405180910390f35b610229610802565b604051610236919061245e565b60405180910390f35b61025960048036038101906102549190611dd4565b610894565b6040516102669190612680565b60405180910390f35b61028960048036038101906102849190611d98565b61094a565b005b6102a560048036038101906102a09190611d1d565b610960565b005b6102c160048036038101906102bc9190611ee1565b6109c2565b6040516102ce919061245e565b60405180910390f35b6102f160048036038101906102ec9190611c92565b610b14565b6040516102fe9190612443565b60405180910390f35b60007f80ac58cd000000000000000000000000000000000000000000000000000000007bffffffffffffffffffffffffffffffffffffffffffffffffffffffff1916827bffffffffffffffffffffffffffffffffffffffffffffffffffffffff191614806103d257507f5b5e139f000000000000000000000000000000000000000000000000000000007bffffffffffffffffffffffffffffffffffffffffffffffffffffffff1916827bffffffffffffffffffffffffffffffffffffffffffffffffffffffff1916145b806103e257506103e182610ba8565b5b9050919050565b6060600080546103f890612930565b80601f016020809104026020016040519081016040528092919081815260200182805461042490612930565b80156104715780601f1061044657610100808354040283529160200191610471565b820191906000526020600020905b81548152906001019060200180831161045457829003601f168201915b5050505050905090565b600061048682610c12565b6104c5576040517f08c379a00000000000000000000000000000000000000000000000000000000081526004016104bc90612600565b60405180910390fd5b6004600083815260200190815260200160002060009054906101000a900473ffffffffffffffffffffffffffffffffffffffff169050919050565b600061050b82610698565b90508073ffffffffffffffffffffffffffffffffffffffff168373ffffffffffffffffffffffffffffffffffffffff16141561057c576040517f08c379a000000000000000000000000000000000000000000000000000000000815260040161057390612640565b60405180910390fd5b8073ffffffffffffffffffffffffffffffffffffffff1661059b610c7e565b73ffffffffffffffffffffffffffffffffffffffff1614806105ca57506105c9816105c4610c7e565b610b14565b5b610609576040517f08c379a000000000000000000000000000000000000000000000000000000000815260040161060090612540565b60405180910390fd5b6106138383610c86565b505050565b610629610623610c7e565b82610d3f565b610668576040517f08c379a000000000000000000000000000000000000000000000000000000000815260040161065f90612660565b60405180910390fd5b610673838383610e1d565b505050565b61069383838360405180602001604052806000815250610960565b505050565b6000806002600084815260200190815260200160002060009054906101000a900473ffffffffffffffffffffffffffffffffffffffff169050600073ffffffffffffffffffffffffffffffffffffffff168173ffffffffffffffffffffffffffffffffffffffff161415610741576040517f08c379a000000000000000000000000000000000000000000000000000000000815260040161073890612580565b60405180910390fd5b80915050919050565b60008073ffffffffffffffffffffffffffffffffffffffff168273ffffffffffffffffffffffffffffffffffffffff1614156107bb576040517f08c379a00000000000000000000000000000000000000000000000000000000081526004016107b290612560565b60405180910390fd5b600360008373ffffffffffffffffffffffffffffffffffffffff1673ffffffffffffffffffffffffffffffffffffffff168152602001908152602001600020549050919050565b60606001805461081190612930565b80601f016020809104026020016040519081016040528092919081815260200182805461083d90612930565b801561088a5780601f1061085f5761010080835404028352916020019161088a565b820191906000526020600020905b81548152906001019060200180831161086d57829003601f168201915b5050505050905090565b60006108a06007611084565b600083836040516020016108b5929190612380565b604051602081830303815290604052905060006108f48585846040516020016108e093929190612323565b60405160208183030381529060405261109a565b905060008160405160200161090991906123ba565b604051602081830303815290604052905060006109266007611239565b90506109328882611247565b61093c8183611421565b809450505050509392505050565b61095c610955610c7e565b8383611495565b5050565b61097161096b610c7e565b83610d3f565b6109b0576040517f08c379a00000000000000000000000000000000000000000000000000000000081526004016109a790612660565b60405180910390fd5b6109bc84848484611602565b50505050565b60606109cd82610c12565b610a0c576040517f08c379a0000000000000000000000000000000000000000000000000000000008152600401610a03906125e0565b60405180910390fd5b6000600660008481526020019081526020016000208054610a2c90612930565b80601f0160208091040260200160405190810160405280929190818152602001828054610a5890612930565b8015610aa55780601f10610a7a57610100808354040283529160200191610aa5565b820191906000526020600020905b815481529060010190602001808311610a8857829003601f168201915b505050505090506000610ab661165e565b9050600081511415610acc578192505050610b0f565b600082511115610b01578082604051602001610ae99291906122ff565b60405160208183030381529060405292505050610b0f565b610b0a84611675565b925050505b919050565b6000600560008473ffffffffffffffffffffffffffffffffffffffff1673ffffffffffffffffffffffffffffffffffffffff16815260200190815260200160002060008373ffffffffffffffffffffffffffffffffffffffff1673ffffffffffffffffffffffffffffffffffffffff16815260200190815260200160002060009054906101000a900460ff16905092915050565b60007f01ffc9a7000000000000000000000000000000000000000000000000000000007bffffffffffffffffffffffffffffffffffffffffffffffffffffffff1916827bffffffffffffffffffffffffffffffffffffffffffffffffffffffff1916149050919050565b60008073ffffffffffffffffffffffffffffffffffffffff166002600084815260200190815260200160002060009054906101000a900473ffffffffffffffffffffffffffffffffffffffff1673ffffffffffffffffffffffffffffffffffffffff1614159050919050565b600033905090565b816004600083815260200190815260200160002060006101000a81548173ffffffffffffffffffffffffffffffffffffffff021916908373ffffffffffffffffffffffffffffffffffffffff160217905550808273ffffffffffffffffffffffffffffffffffffffff16610cf983610698565b73ffffffffffffffffffffffffffffffffffffffff167f8c5be1e5ebec7d5bd14f71427d1e84f3dd0314c0f7b2291e5b200ac8c7c3b92560405160405180910390a45050565b6000610d4a82610c12565b610d89576040517f08c379a0000000000000000000000000000000000000000000000000000000008152600401610d8090612520565b60405180910390fd5b6000610d9483610698565b90508073ffffffffffffffffffffffffffffffffffffffff168473ffffffffffffffffffffffffffffffffffffffff161480610e0357508373ffffffffffffffffffffffffffffffffffffffff16610deb8461047b565b73ffffffffffffffffffffffffffffffffffffffff16145b80610e145750610e138185610b14565b5b91505092915050565b8273ffffffffffffffffffffffffffffffffffffffff16610e3d82610698565b73ffffffffffffffffffffffffffffffffffffffff1614610e93576040517f08c379a0000000000000000000000000000000000000000000000000000000008152600401610e8a906124a0565b60405180910390fd5b600073ffffffffffffffffffffffffffffffffffffffff168273ffffffffffffffffffffffffffffffffffffffff161415610f03576040517f08c379a0000000000000000000000000000000000000000000000000000000008152600401610efa906124e0565b60405180910390fd5b610f0e83838361171c565b610f19600082610c86565b6001600360008573ffffffffffffffffffffffffffffffffffffffff1673ffffffffffffffffffffffffffffffffffffffff1681526020019081526020016000206000828254610f699190612846565b925050819055506001600360008473ffffffffffffffffffffffffffffffffffffffff1673ffffffffffffffffffffffffffffffffffffffff1681526020019081526020016000206000828254610fc09190612765565b92505081905550816002600083815260200190815260200160002060006101000a81548173ffffffffffffffffffffffffffffffffffffffff021916908373ffffffffffffffffffffffffffffffffffffffff160217905550808273ffffffffffffffffffffffffffffffffffffffff168473ffffffffffffffffffffffffffffffffffffffff167fddf252ad1be2c89b69c2b068fc378daa952ba7f163c4a11628f55a4df523b3ef60405160405180910390a461107f838383611721565b505050565b6001816000016000828254019250508190555050565b60606000825114156110bd57604051806020016040528060008152509050611234565b60006040518060600160405280604081526020016130d460409139905060006003600285516110ec9190612765565b6110f691906127bb565b600461110291906127ec565b905060006020826111139190612765565b67ffffffffffffffff811115611152577f4e487b7100000000000000000000000000000000000000000000000000000000600052604160045260246000fd5b6040519080825280601f01601f1916602001820160405280156111845781602001600182028036833780820191505090505b509050818152600183018586518101602084015b818310156111f3576003830192508251603f8160121c168501518253600182019150603f81600c1c168501518253600182019150603f8160061c168501518253600182019150603f8116850151825360018201915050611198565b60038951066001811461120d576002811461121d57611228565b613d3d60f01b6002830352611228565b603d60f81b60018303525b50505050508093505050505b919050565b600081600001549050919050565b600073ffffffffffffffffffffffffffffffffffffffff168273ffffffffffffffffffffffffffffffffffffffff1614156112b7576040517f08c379a00000000000000000000000000000000000000000000000000000000081526004016112ae906125c0565b60405180910390fd5b6112c081610c12565b15611300576040517f08c379a00000000000000000000000000000000000000000000000000000000081526004016112f7906124c0565b60405180910390fd5b61130c6000838361171c565b6001600360008473ffffffffffffffffffffffffffffffffffffffff1673ffffffffffffffffffffffffffffffffffffffff168152602001908152602001600020600082825461135c9190612765565b92505081905550816002600083815260200190815260200160002060006101000a81548173ffffffffffffffffffffffffffffffffffffffff021916908373ffffffffffffffffffffffffffffffffffffffff160217905550808273ffffffffffffffffffffffffffffffffffffffff16600073ffffffffffffffffffffffffffffffffffffffff167fddf252ad1be2c89b69c2b068fc378daa952ba7f163c4a11628f55a4df523b3ef60405160405180910390a461141d60008383611721565b5050565b61142a82610c12565b611469576040517f08c379a0000000000000000000000000000000000000000000000000000000008152600401611460906125a0565b60405180910390fd5b80600660008481526020019081526020016000209080519060200190611490929190611a8d565b505050565b8173ffffffffffffffffffffffffffffffffffffffff168373ffffffffffffffffffffffffffffffffffffffff161415611504576040517f08c379a00000000000000000000000000000000000000000000000000000000081526004016114fb90612500565b60405180910390fd5b80600560008573ffffffffffffffffffffffffffffffffffffffff1673ffffffffffffffffffffffffffffffffffffffff16815260200190815260200160002060008473ffffffffffffffffffffffffffffffffffffffff1673ffffffffffffffffffffffffffffffffffffffff16815260200190815260200160002060006101000a81548160ff0219169083151502179055508173ffffffffffffffffffffffffffffffffffffffff168373ffffffffffffffffffffffffffffffffffffffff167f17307eab39ab6107e8899845ad3d59bd9653f200f220920489ca2b5937696c31836040516115f59190612443565b60405180910390a3505050565b61160d848484610e1d565b61161984848484611726565b611658576040517f08c379a000000000000000000000000000000000000000000000000000000000815260040161164f90612480565b60405180910390fd5b50505050565b606060405180602001604052806000815250905090565b606061168082610c12565b6116bf576040517f08c379a00000000000000000000000000000000000000000000000000000000081526004016116b690612620565b60405180910390fd5b60006116c961165e565b905060008151116116e95760405180602001604052806000815250611714565b806116f3846118bd565b6040516020016117049291906122ff565b6040516020818303038152906040525b915050919050565b505050565b505050565b60006117478473ffffffffffffffffffffffffffffffffffffffff16611a6a565b156118b0578373ffffffffffffffffffffffffffffffffffffffff1663150b7a02611770610c7e565b8786866040518563ffffffff1660e01b815260040161179294939291906123f7565b602060405180830381600087803b1580156117ac57600080fd5b505af19250505080156117dd57506040513d601f19601f820116820180604052508101906117da9190611eb8565b60015b611860573d806000811461180d576040519150601f19603f3d011682016040523d82523d6000602084013e611812565b606091505b50600081511415611858576040517f08c379a000000000000000000000000000000000000000000000000000000000815260040161184f90612480565b60405180910390fd5b805181602001fd5b63150b7a0260e01b7bffffffffffffffffffffffffffffffffffffffffffffffffffffffff1916817bffffffffffffffffffffffffffffffffffffffffffffffffffffffff1916149150506118b5565b600190505b949350505050565b60606000821415611905576040518060400160405280600181526020017f30000000000000000000000000000000000000000000000000000000000000008152509050611a65565b600082905060005b6000821461193757808061192090612993565b915050600a8261193091906127bb565b915061190d565b60008167ffffffffffffffff811115611979577f4e487b7100000000000000000000000000000000000000000000000000000000600052604160045260246000fd5b6040519080825280601f01601f1916602001820160405280156119ab5781602001600182028036833780820191505090505b5090505b60008514611a5e576001826119c49190612846565b9150600a856119d391906129dc565b60306119df9190612765565b60f81b818381518110611a1b577f4e487b7100000000000000000000000000000000000000000000000000000000600052603260045260246000fd5b60200101907effffffffffffffffffffffffffffffffffffffffffffffffffffffffffffff1916908160001a905350600a85611a5791906127bb565b94506119af565b8093505050505b919050565b6000808273ffffffffffffffffffffffffffffffffffffffff163b119050919050565b828054611a9990612930565b90600052602060002090601f016020900481019282611abb5760008555611b02565b82601f10611ad457805160ff1916838001178555611b02565b82800160010185558215611b02579182015b82811115611b01578251825591602001919060010190611ae6565b5b509050611b0f9190611b13565b5090565b5b80821115611b2c576000816000905550600101611b14565b5090565b6000611b43611b3e846126c0565b61269b565b905082815260208101848484011115611b5b57600080fd5b611b668482856128ee565b509392505050565b6000611b81611b7c846126f1565b61269b565b905082815260208101848484011115611b9957600080fd5b611ba48482856128ee565b509392505050565b600081359050611bbb81613077565b92915050565b600081359050611bd08161308e565b92915050565b600081359050611be5816130a5565b92915050565b600081519050611bfa816130a5565b92915050565b600082601f830112611c1157600080fd5b8135611c21848260208601611b30565b91505092915050565b600082601f830112611c3b57600080fd5b8135611c4b848260208601611b6e565b91505092915050565b600081359050611c63816130bc565b92915050565b600060208284031215611c7b57600080fd5b6000611c8984828501611bac565b91505092915050565b60008060408385031215611ca557600080fd5b6000611cb385828601611bac565b9250506020611cc485828601611bac565b9150509250929050565b600080600060608486031215611ce357600080fd5b6000611cf186828701611bac565b9350506020611d0286828701611bac565b9250506040611d1386828701611c54565b9150509250925092565b60008060008060808587031215611d3357600080fd5b6000611d4187828801611bac565b9450506020611d5287828801611bac565b9350506040611d6387828801611c54565b925050606085013567ffffffffffffffff811115611d8057600080fd5b611d8c87828801611c00565b91505092959194509250565b60008060408385031215611dab57600080fd5b6000611db985828601611bac565b9250506020611dca85828601611bc1565b9150509250929050565b600080600060608486031215611de957600080fd5b6000611df786828701611bac565b935050602084013567ffffffffffffffff811115611e1457600080fd5b611e2086828701611c2a565b925050604084013567ffffffffffffffff811115611e3d57600080fd5b611e4986828701611c2a565b9150509250925092565b60008060408385031215611e6657600080fd5b6000611e7485828601611bac565b9250506020611e8585828601611c54565b9150509250929050565b600060208284031215611ea157600080fd5b6000611eaf84828501611bd6565b91505092915050565b600060208284031215611eca57600080fd5b6000611ed884828501611beb565b91505092915050565b600060208284031215611ef357600080fd5b6000611f0184828501611c54565b91505092915050565b611f138161287a565b82525050565b611f228161288c565b82525050565b6000611f3382612722565b611f3d8185612738565b9350611f4d8185602086016128fd565b611f5681612ac9565b840191505092915050565b6000611f6c8261272d565b611f768185612749565b9350611f868185602086016128fd565b611f8f81612ac9565b840191505092915050565b6000611fa58261272d565b611faf818561275a565b9350611fbf8185602086016128fd565b80840191505092915050565b6000611fd860098361275a565b9150611fe382612ada565b600982019050919050565b6000611ffb600b8361275a565b915061200682612b03565b600b82019050919050565b600061201e600f8361275a565b915061202982612b2c565b600f82019050919050565b6000612041603283612749565b915061204c82612b55565b604082019050919050565b6000612064602583612749565b915061206f82612ba4565b604082019050919050565b600061208760088361275a565b915061209282612bf3565b600882019050919050565b60006120aa601c83612749565b91506120b582612c1c565b602082019050919050565b60006120cd602483612749565b91506120d882612c45565b604082019050919050565b60006120f0601983612749565b91506120fb82612c94565b602082019050919050565b600061211360118361275a565b915061211e82612cbd565b601182019050919050565b6000612136602c83612749565b915061214182612ce6565b604082019050919050565b6000612159603883612749565b915061216482612d35565b604082019050919050565b600061217c602a83612749565b915061218782612d84565b604082019050919050565b600061219f602983612749565b91506121aa82612dd3565b604082019050919050565b60006121c2602e83612749565b91506121cd82612e22565b604082019050919050565b60006121e560028361275a565b91506121f082612e71565b600282019050919050565b6000612208602083612749565b915061221382612e9a565b602082019050919050565b600061222b603183612749565b915061223682612ec3565b604082019050919050565b600061224e602c83612749565b915061225982612f12565b604082019050919050565b6000612271602f83612749565b915061227c82612f61565b604082019050919050565b6000612294602183612749565b915061229f82612fb0565b604082019050919050565b60006122b7603183612749565b91506122c282612fff565b604082019050919050565b60006122da60168361275a565b91506122e58261304e565b601682019050919050565b6122f9816128e4565b82525050565b600061230b8285611f9a565b91506123178284611f9a565b91508190509392505050565b600061232e82611fcb565b915061233a8286611f9a565b915061234582611fee565b91506123518285611f9a565b915061235c82612106565b91506123688284611f9a565b9150612373826121d8565b9150819050949350505050565b600061238b82612011565b91506123978285611f9a565b91506123a28261207a565b91506123ae8284611f9a565b91508190509392505050565b60006123c5826122cd565b91506123d18284611f9a565b915081905092915050565b60006020820190506123f16000830184611f0a565b92915050565b600060808201905061240c6000830187611f0a565b6124196020830186611f0a565b61242660408301856122f0565b81810360608301526124388184611f28565b905095945050505050565b60006020820190506124586000830184611f19565b92915050565b600060208201905081810360008301526124788184611f61565b905092915050565b6000602082019050818103600083015261249981612034565b9050919050565b600060208201905081810360008301526124b981612057565b9050919050565b600060208201905081810360008301526124d98161209d565b9050919050565b600060208201905081810360008301526124f9816120c0565b9050919050565b60006020820190508181036000830152612519816120e3565b9050919050565b6000602082019050818103600083015261253981612129565b9050919050565b600060208201905081810360008301526125598161214c565b9050919050565b600060208201905081810360008301526125798161216f565b9050919050565b6000602082019050818103600083015261259981612192565b9050919050565b600060208201905081810360008301526125b9816121b5565b9050919050565b600060208201905081810360008301526125d9816121fb565b9050919050565b600060208201905081810360008301526125f98161221e565b9050919050565b6000602082019050818103600083015261261981612241565b9050919050565b6000602082019050818103600083015261263981612264565b9050919050565b6000602082019050818103600083015261265981612287565b9050919050565b60006020820190508181036000830152612679816122aa565b9050919050565b600060208201905061269560008301846122f0565b92915050565b60006126a56126b6565b90506126b18282612962565b919050565b6000604051905090565b600067ffffffffffffffff8211156126db576126da612a9a565b5b6126e482612ac9565b9050602081019050919050565b600067ffffffffffffffff82111561270c5761270b612a9a565b5b61271582612ac9565b9050602081019050919050565b600081519050919050565b600081519050919050565b600082825260208201905092915050565b600082825260208201905092915050565b600081905092915050565b6000612770826128e4565b915061277b836128e4565b9250827fffffffffffffffffffffffffffffffffffffffffffffffffffffffffffffffff038211156127b0576127af612a0d565b5b828201905092915050565b60006127c6826128e4565b91506127d1836128e4565b9250826127e1576127e0612a3c565b5b828204905092915050565b60006127f7826128e4565b9150612802836128e4565b9250817fffffffffffffffffffffffffffffffffffffffffffffffffffffffffffffffff048311821515161561283b5761283a612a0d565b5b828202905092915050565b6000612851826128e4565b915061285c836128e4565b92508282101561286f5761286e612a0d565b5b828203905092915050565b6000612885826128c4565b9050919050565b60008115159050919050565b60007fffffffff0000000000000000000000000000000000000000000000000000000082169050919050565b600073ffffffffffffffffffffffffffffffffffffffff82169050919050565b6000819050919050565b82818337600083830152505050565b60005b8381101561291b578082015181840152602081019050612900565b8381111561292a576000848401525b50505050565b6000600282049050600182168061294857607f821691505b6020821081141561295c5761295b612a6b565b5b50919050565b61296b82612ac9565b810181811067ffffffffffffffff8211171561298a57612989612a9a565b5b80604052505050565b600061299e826128e4565b91507fffffffffffffffffffffffffffffffffffffffffffffffffffffffffffffffff8214156129d1576129d0612a0d565b5b600182019050919050565b60006129e7826128e4565b91506129f2836128e4565b925082612a0257612a01612a3c565b5b828206905092915050565b7f4e487b7100000000000000000000000000000000000000000000000000000000600052601160045260246000fd5b7f4e487b7100000000000000000000000000000000000000000000000000000000600052601260045260246000fd5b7f4e487b7100000000000000000000000000000000000000000000000000000000600052602260045260246000fd5b7f4e487b7100000000000000000000000000000000000000000000000000000000600052604160045260246000fd5b6000601f19601f8301169050919050565b7f7b226e616d65223a220000000000000000000000000000000000000000000000600082015250565b7f222c22696d616765223a22000000000000000000000000000000000000000000600082015250565b7f526574726f204d616368696e653a200000000000000000000000000000000000600082015250565b7f4552433732313a207472616e7366657220746f206e6f6e20455243373231526560008201527f63656976657220696d706c656d656e7465720000000000000000000000000000602082015250565b7f4552433732313a207472616e736665722066726f6d20696e636f72726563742060008201527f6f776e6572000000000000000000000000000000000000000000000000000000602082015250565b7f0a496d6167653a20000000000000000000000000000000000000000000000000600082015250565b7f4552433732313a20746f6b656e20616c7265616479206d696e74656400000000600082015250565b7f4552433732313a207472616e7366657220746f20746865207a65726f2061646460008201527f7265737300000000000000000000000000000000000000000000000000000000602082015250565b7f4552433732313a20617070726f766520746f2063616c6c657200000000000000600082015250565b7f222c226465736372697074696f6e223a22000000000000000000000000000000600082015250565b7f4552433732313a206f70657261746f7220717565727920666f72206e6f6e657860008201527f697374656e7420746f6b656e0000000000000000000000000000000000000000602082015250565b7f4552433732313a20617070726f76652063616c6c6572206973206e6f74206f7760008201527f6e6572206e6f7220617070726f76656420666f7220616c6c0000000000000000602082015250565b7f4552433732313a2062616c616e636520717565727920666f7220746865207a6560008201527f726f206164647265737300000000000000000000000000000000000000000000602082015250565b7f4552433732313a206f776e657220717565727920666f72206e6f6e657869737460008201527f656e7420746f6b656e0000000000000000000000000000000000000000000000602082015250565b7f45524337323155524953746f726167653a2055524920736574206f66206e6f6e60008201527f6578697374656e7420746f6b656e000000000000000000000000000000000000602082015250565b7f227d000000000000000000000000000000000000000000000000000000000000600082015250565b7f4552433732313a206d696e7420746f20746865207a65726f2061646472657373600082015250565b7f45524337323155524953746f726167653a2055524920717565727920666f722060008201527f6e6f6e6578697374656e7420746f6b656e000000000000000000000000000000602082015250565b7f4552433732313a20617070726f76656420717565727920666f72206e6f6e657860008201527f697374656e7420746f6b656e0000000000000000000000000000000000000000602082015250565b7f4552433732314d657461646174613a2055524920717565727920666f72206e6f60008201527f6e6578697374656e7420746f6b656e0000000000000000000000000000000000602082015250565b7f4552433732313a20617070726f76616c20746f2063757272656e74206f776e6560008201527f7200000000000000000000000000000000000000000000000000000000000000602082015250565b7f4552433732313a207472616e736665722063616c6c6572206973206e6f74206f60008201527f776e6572206e6f7220617070726f766564000000000000000000000000000000602082015250565b7f646174613a6170706c69636174696f6e2f6a736f6e2c00000000000000000000600082015250565b6130808161287a565b811461308b57600080fd5b50565b6130978161288c565b81146130a257600080fd5b50565b6130ae81612898565b81146130b957600080fd5b50565b6130c5816128e4565b81146130d057600080fd5b5056fe4142434445464748494a4b4c4d4e4f505152535455565758595a6162636465666768696a6b6c6d6e6f707172737475767778797a303132333435363738392b2fa26469706673582212200a77a7ceb98fb94aab85549a9004ddf9c0bbe854043ee20a7a671fc6d0961d0664736f6c63430008040033",
  "linkReferences": {},
  "deployedLinkReferences": {}
}